:1000000050C06AC0D4C168C067C066C065C064C063
:1000100063C062C061C060C05FC05EC05DC00403F9
:10002000090412036F0062006400650076002E0070
:1000300061007400160345006100730079004C00F4
:100040006F00670067006500720012011001000078
:100050000008424231E100010102000109022200D0
:10006000010100A01909040000010300000009219A
:10007000010100012223000705810308000A050190
:100080000906A101050719E029E7150025017501F9
:10009000950881029501750825651900296581007B
:1000A000C00011241FBECFE5D1E0DEBFCDBF10E000
:1000B000A0E6B0E0EAEEF9E002C005900D92A236AB
:1000C000B107D9F710E0A2E6B0E001C01D92A83B4D
:1000D000B107E1F7FAD287C493CF8BB780628BBFA9
:1000E000AC9A8BE480938E008AE580938D0008950E
:1000F0001F93DC01162F80918D0084FF07C0809133
:100100008E0098E8892780938E0003C08AE580934B
:100110008D00912FEFE8F0E08D91819391501916A9
:10012000DCF38FE890E0612F2BD11C5F10938D00E2
:100130001F9108951F93CF93DF9390919E0093504A
:1001400097FDA1C020919B0080919A008D3209F00B
:1001500098C0983009F095C0CCE0D0E0C21BD1091E
:10016000CE55DF4F83EC809382008AE58093600058
:10017000109263008881807621F0CE0176D2282FFC
:1001800077C09A8110928B008981882321F4109284
:100190008C0022E067C0853019F490939F0061C005
:1001A000863009F04AC08B81813019F48AE490E0EE
:1001B0001BC0823041F48CE590E090939D008093C9
:1001C0009C0022E236C08330F9F48A81882341F40E
:1001D0008EE190E090939D0080939C0024E029C0E4
:1001E000813041F482E290E090939D0080939C00E6
:1001F00022E11FC08230E1F484E390E090939D00FF
:1002000080939C0026E115C0813241F48EE690E097
:1002100090939D0080939C0029E00BC0823241F4B2
:100220008EE790E090939D0080939C0023E201C0B4
:1002300020E080E4809363001BC0883021F421E03B
:1002400081EA90E011C0893019F49093A10009C0AF
:100250008A3011F421E006C08B3019F48BE48093CE
:100260008E0020E08BE890E090939D0080939C00AE
:100270008F81882321F48E81821708F4282F209300
:10028000610010929E008091600084FF49C08091BF
:1002900061008F3F09F444C0182F893008F018E03E
:1002A000811B809361008091820098E88927809368
:1002B0008200112341F120919C0030919D0080919A
:1002C000630086FF0DC0A3E8B0E080E090E0F90194
:1002D000E80FF91FE491ED9301961817C1F708C0D4
:1002E000912FD901E3E8F0E08D9181939150E1F7EE
:1002F0001150812F90E01F5F0196820F931F909302
:100300009D0080939C0083E890E0612F39D0612F9D
:100310006C5F6C3019F08FEF809361006093600028
:1003200094E186B3887131F49150D9F710929F000F
:100330001092990010E0992309F411E08091620075
:10034000811729F0112309F4C1D210936200DF91C3
:10035000CF911F910895A82FB92F80E090E041E040
:1003600050EA609530E009C02D91822797958795D6
:1003700010F084279527305EC8F36F5FA8F30895C7
:10038000EADF8D939D930895A6E088279927AA9583
:1003900069F00197E1F3B399FCCFB39BFECF81E005
:1003A0009927A6B3019611F0A871D9F70895CF93B4
:1003B000CFB7CF93C395B39BE9F7B39B0BC0B39B68
:1003C00009C0B39B07C0B39B05C0B39B03C0B39BDD
:1003D00001C0D5C00F92DF93C0919B00DD27CE55A1
:1003E000DF4F012EB39B03C0DF910F90E6CF2F9319
:1003F0000F931F934F932FEF4F6F06B303FB20F91B
:100400005F933F9350E03BE065C016B3012650294F
:1004100053FDC89556B3012703FB25F92F7306B387
:10042000B1F05027102713FB26F906B22230F0F066
:1004300000C016B3012703FB27F90126502906B295
:100440002430E8F54F77206816B30000F6CF502728
:100450004F7D206206B2102F000000C006B30026B8
:100460005029102713FB26F906B2E2CF4F7B06B3C3
:10047000206400C0DACF01265029187106B269F154
:100480004E7F2160012F16B328C0002650294D7FD2
:1004900006B22260102F29C0012650294B7F06B2D8
:1004A0002460012F2DC016B301265029477F2860F4
:1004B000000006B22EC04F7E06B3206130C0422736
:1004C00006B3499300265029102706B24FEF13FBBD
:1004D00020F9297F16B379F2187159F101265029B4
:1004E00006B2012703FB21F9237F06B371F2002630
:1004F00050293150D0F006B2102713FB22F9277E85
:1005000016B351F201265029012703FB06B223F945
:100510002F7C49F2000006B3102713FB24F90026B4
:10052000502906B22F7939F270CF10E21ABF002796
:1005300019C03B503195C31BD04010E21ABF08814F
:10054000033C09F10B34F9F0209199001981110F46
:100550001213EDCF4A81441F093651F10D3211F0CB
:10056000013E29F70093A0003F915F914F911F91A9
:100570000F912F91DF910F90CAB7C5FD1BCFCF917F
:10058000CFBFCF9118952091A000222369F310913D
:100590009E00112379F534307AF130939E00209338
:1005A0009A0010919B003BE0311B30939B0024C0CC
:1005B00000919E000130F4F40AE54F7049F4309147
:1005C000600034FD1AC000936000C2E8D0E019C09A
:1005D00030918D0034FD11C000938D00CEE8D0E045
:1005E00010C0052710E000C021C0052710E0C89505
:1005F00008BB14C03AE501C032ED032EC0E0D0E0E4
:1006000032E017B31861C39A08B317BB58E120E86A
:100610004FEF20FF052708BB279517951C3F28F7AC
:1006200000004552B0F720FF0527279508BB179516
:100630001C3FB8F629913A9561F7077E10919F000B
:10064000110F08BBC250D04011F01093990010E276
:100650001ABF086017B3177E402F477E54E05A95A3
:10066000F1F708BB17BB48BB7FCFFC0186E690E0E3
:1006700090939D0080939C0080818076803219F554
:100680008181813079F4E0918000F0918100309790
:1006900011F480E001C080811092660080936700B1
:1006A00082E00895823041F488E690E090939D00C6
:1006B00080939C0081E008958A3029F4838180939F
:1006C000680080E0089580E008957F928F929F9265
:1006D000AF92BF92CF92DF92EF92FF920F931F9350
:1006E000CF93DF9380E090E068D18F3F09F081BF26
:1006F000BB9A20E043EB51EFCA010197F1F72F5F5E
:100700002431D1F7BB98B99AC09A2EE088E190E0E5
:100710000FB6F894A89581BD0FBE21BD8BE080BFB8
:1007200081E987B987E886B9D8DC7894A4E08A2E75
:1007300077247394AA24AA94F8E29F2ECAE7D0E003
:10074000E7E3BE2E77E2D72E6DE2C62E57E2E52E06
:10075000A895F0DC80918D0084FF20C0E09180009E
:10076000F09181003097D1F08081109266008093E3
:10077000670086E690E062E0BBDCE0918000F091EB
:1007800081003196F0938100E09380003197818160
:100790008F3F21F4109281001092800008B602FE73
:1007A00027C088BE96B3917080916500891781F04B
:1007B00090936500992361F480916A00882309F47D
:1007C00091E090936A00992311F0C19A01C0C198F9
:1007D000809164008F5F809364008F3348F01092A3
:1007E000640080916A00882319F070926900369A3B
:1007F00080916900882309F4ABCF3699A9CF109274
:10080000690084B195B19C01359527958255934037
:10081000280F391FF32EFF1CFF24FF1CF0927F00CE
:10082000FF2019F0309521953F4FA0927E00109245
:100830007D0090927C00C9016AE070E097D0109230
:100840007B00882339F4D0938100C0938000E0922C
:100850007A0007C0D0938100C0938000835E8093AC
:100860007A00C9016AE070E081D08B01809180003C
:1008700090918100FC0112923197B082FC01349773
:10088000C8016AE070E072D0482FC8016AE070E0E9
:100890006DD09B018B011182442319F4CF01D082CA
:1008A00003C0CF01435E40833297232B49F78093E7
:1008B000800090938100FF2009F44ACFFC0131971A
:1008C000F0938100E0938000C08242CFDF92EF92EC
:1008D000FF920F931F93CF93DF93F89400E0B0E85B
:1008E000DB2EEE24FF241D2D100F11BF4DDDEC017A
:1008F00089E0C433D8070CF0102FD6940894E11C7B
:10090000F11C88E0E816F10411F0012FECCF115032
:1009100011BF1F5FE12EFF240894E11CF11C13C0DE
:1009200033DD9C012453394037FF03C030952195B6
:100930003F4F2C173D0714F09E0101C011B781B73E
:100940008F5F81BFE90181B790E0E816F90644F7AF
:1009500011BF789461B780E090E037D0DF91CF91FC
:100960001F910F91FF90EF90DF90089597FB092E54
:1009700007260AD077FD04D00CD006D000201AF448
:10098000709561957F4F0895F6F7909581959F4FEB
:100990000895AA1BBB1B51E107C0AA1FBB1FA617C6
:1009A000B70710F0A61BB70B881F991F5A95A9F718
:1009B00080959095BC01CD010895E199FECF1FBAB5
:1009C0008EBBE09A99278DB30895262FE199FECF2B
:1009D0001CBA1FBA8EBB2DBB0FB6F894E29AE19AEF
:0A09E0000FBE01960895F894FFCFB2
:0209EA005AFFB2
:00000001FF
